{
  "address": "0x35EC31Aaf46e77be441C361Da74158527C6c9359",
  "abi": [
    {
      "inputs": [
        {
          "internalType": "address",
          "name": "_corePoolComptroller",
          "type": "address"
        },
        {
          "internalType": "address",
          "name": "_wbnb",
          "type": "address"
        },
        {
          "internalType": "address",
          "name": "_vbnb",
          "type": "address"
        }
      ],
      "stateMutability": "nonpayable",
      "type": "constructor"
    },
    {
      "inputs": [],
      "name": "InvalidAddress",
      "type": "error"
    },
    {
      "inputs": [],
      "name": "InvalidTotalPercentage",
      "type": "error"
    },
    {
      "inputs": [
        {
          "internalType": "uint256",
          "name": "loopsLimit",
          "type": "uint256"
        },
        {
          "internalType": "uint256",
          "name": "requiredLoops",
          "type": "uint256"
        }
      ],
      "name": "MaxLoopsLimitExceeded",
      "type": "error"
    },
    {
      "inputs": [
        {
          "internalType": "address",
          "name": "sender",
          "type": "address"
        },
        {
          "internalType": "address",
          "name": "calledContract",
          "type": "address"
        },
        {
          "internalType": "string",
          "name": "methodSignature",
          "type": "string"
        }
      ],
      "name": "Unauthorized",
      "type": "error"
    },
    {
      "inputs": [],
      "name": "ZeroAddressNotAllowed",
      "type": "error"
    },
    {
      "anonymous": false,
      "inputs": [
        {
          "indexed": true,
          "internalType": "address",
          "name": "destination",
          "type": "address"
        },
        {
          "indexed": true,
          "internalType": "address",
          "name": "asset",
          "type": "address"
        },
        {
          "indexed": false,
          "internalType": "enum ProtocolShareReserve.Schema",
          "name": "schema",
          "type": "uint8"
        },
        {
          "indexed": false,
          "internalType": "uint256",
          "name": "percent",
          "type": "uint256"
        },
        {
          "indexed": false,
          "internalType": "uint256",
          "name": "amount",
          "type": "uint256"
        }
      ],
      "name": "AssetReleased",
      "type": "event"
    },
    {
      "anonymous": false,
      "inputs": [
        {
          "indexed": true,
          "internalType": "address",
          "name": "comptroller",
          "type": "address"
        },
        {
          "indexed": true,
          "internalType": "address",
          "name": "asset",
          "type": "address"
        },
        {
          "indexed": false,
          "internalType": "uint256",
          "name": "amount",
          "type": "uint256"
        },
        {
          "indexed": false,
          "internalType": "enum IProtocolShareReserve.IncomeType",
          "name": "incomeType",
          "type": "uint8"
        },
        {
          "indexed": false,
          "internalType": "enum ProtocolShareReserve.Schema",
          "name": "schema",
          "type": "uint8"
        }
      ],
      "name": "AssetsReservesUpdated",
      "type": "event"
    },
    {
      "anonymous": false,
      "inputs": [
        {
          "indexed": true,
          "internalType": "address",
          "name": "destination",
          "type": "address"
        },
        {
          "indexed": false,
          "internalType": "uint16",
          "name": "percentage",
          "type": "uint16"
        },
        {
          "indexed": false,
          "internalType": "enum ProtocolShareReserve.Schema",
          "name": "schema",
          "type": "uint8"
        }
      ],
      "name": "DistributionConfigAdded",
      "type": "event"
    },
    {
      "anonymous": false,
      "inputs": [
        {
          "indexed": true,
          "internalType": "address",
          "name": "destination",
          "type": "address"
        },
        {
          "indexed": false,
          "internalType": "uint16",
          "name": "percentage",
          "type": "uint16"
        },
        {
          "indexed": false,
          "internalType": "enum ProtocolShareReserve.Schema",
          "name": "schema",
          "type": "uint8"
        }
      ],
      "name": "DistributionConfigRemoved",
      "type": "event"
    },
    {
      "anonymous": false,
      "inputs": [
        {
          "indexed": true,
          "internalType": "address",
          "name": "destination",
          "type": "address"
        },
        {
          "indexed": false,
          "internalType": "uint16",
          "name": "oldPercentage",
          "type": "uint16"
        },
        {
          "indexed": false,
          "internalType": "uint16",
          "name": "newPercentage",
          "type": "uint16"
        },
        {
          "indexed": false,
          "internalType": "enum ProtocolShareReserve.Schema",
          "name": "schema",
          "type": "uint8"
        }
      ],
      "name": "DistributionConfigUpdated",
      "type": "event"
    },
    {
      "anonymous": false,
      "inputs": [
        {
          "indexed": false,
          "internalType": "uint8",
          "name": "version",
          "type": "uint8"
        }
      ],
      "name": "Initialized",
      "type": "event"
    },
    {
      "anonymous": false,
      "inputs": [
        {
          "indexed": false,
          "internalType": "uint256",
          "name": "oldMaxLoopsLimit",
          "type": "uint256"
        },
        {
          "indexed": false,
          "internalType": "uint256",
          "name": "newmaxLoopsLimit",
          "type": "uint256"
        }
      ],
      "name": "MaxLoopsLimitUpdated",
      "type": "event"
    },
    {
      "anonymous": false,
      "inputs": [
        {
          "indexed": false,
          "internalType": "address",
          "name": "oldAccessControlManager",
          "type": "address"
        },
        {
          "indexed": false,
          "internalType": "address",
          "name": "newAccessControlManager",
          "type": "address"
        }
      ],
      "name": "NewAccessControlManager",
      "type": "event"
    },
    {
      "anonymous": false,
      "inputs": [
        {
          "indexed": true,
          "internalType": "address",
          "name": "previousOwner",
          "type": "address"
        },
        {
          "indexed": true,
          "internalType": "address",
          "name": "newOwner",
          "type": "address"
        }
      ],
      "name": "OwnershipTransferStarted",
      "type": "event"
    },
    {
      "anonymous": false,
      "inputs": [
        {
          "indexed": true,
          "internalType": "address",
          "name": "previousOwner",
          "type": "address"
        },
        {
          "indexed": true,
          "internalType": "address",
          "name": "newOwner",
          "type": "address"
        }
      ],
      "name": "OwnershipTransferred",
      "type": "event"
    },
    {
      "anonymous": false,
      "inputs": [
        {
          "indexed": true,
          "internalType": "address",
          "name": "oldPoolRegistry",
          "type": "address"
        },
        {
          "indexed": true,
          "internalType": "address",
          "name": "newPoolRegistry",
          "type": "address"
        }
      ],
      "name": "PoolRegistryUpdated",
      "type": "event"
    },
    {
      "anonymous": false,
      "inputs": [
        {
          "indexed": true,
          "internalType": "address",
          "name": "comptroller",
          "type": "address"
        },
        {
          "indexed": true,
          "internalType": "address",
          "name": "asset",
          "type": "address"
        },
        {
          "indexed": false,
          "internalType": "enum ProtocolShareReserve.Schema",
          "name": "schema",
          "type": "uint8"
        },
        {
          "indexed": false,
          "internalType": "uint256",
          "name": "oldBalance",
          "type": "uint256"
        },
        {
          "indexed": false,
          "internalType": "uint256",
          "name": "newBalance",
          "type": "uint256"
        }
      ],
      "name": "ReservesUpdated",
      "type": "event"
    },
    {
      "inputs": [],
      "name": "CORE_POOL_COMPTROLLER",
      "outputs": [
        {
          "internalType": "address",
          "name": "",
          "type": "address"
        }
      ],
      "stateMutability": "view",
      "type": "function"
    },
    {
      "inputs": [],
      "name": "MAX_PERCENT",
      "outputs": [
        {
          "internalType": "uint16",
          "name": "",
          "type": "uint16"
        }
      ],
      "stateMutability": "view",
      "type": "function"
    },
    {
      "inputs": [],
      "name": "WBNB",
      "outputs": [
        {
          "internalType": "address",
          "name": "",
          "type": "address"
        }
      ],
      "stateMutability": "view",
      "type": "function"
    },
    {
      "inputs": [],
      "name": "acceptOwnership",
      "outputs": [],
      "stateMutability": "nonpayable",
      "type": "function"
    },
    {
      "inputs": [],
      "name": "accessControlManager",
      "outputs": [
        {
          "internalType": "contract IAccessControlManagerV8",
          "name": "",
          "type": "address"
        }
      ],
      "stateMutability": "view",
      "type": "function"
    },
    {
      "inputs": [
        {
          "components": [
            {
              "internalType": "enum ProtocolShareReserve.Schema",
              "name": "schema",
              "type": "uint8"
            },
            {
              "internalType": "uint16",
              "name": "percentage",
              "type": "uint16"
            },
            {
              "internalType": "address",
              "name": "destination",
              "type": "address"
            }
          ],
          "internalType": "struct ProtocolShareReserve.DistributionConfig[]",
          "name": "configs",
          "type": "tuple[]"
        }
      ],
      "name": "addOrUpdateDistributionConfigs",
      "outputs": [],
      "stateMutability": "nonpayable",
      "type": "function"
    },
    {
      "inputs": [
        {
          "internalType": "address",
          "name": "",
          "type": "address"
        },
        {
          "internalType": "address",
          "name": "",
          "type": "address"
        },
        {
          "internalType": "enum ProtocolShareReserve.Schema",
          "name": "",
          "type": "uint8"
        }
      ],
      "name": "assetsReserves",
      "outputs": [
        {
          "internalType": "uint256",
          "name": "",
          "type": "uint256"
        }
      ],
      "stateMutability": "view",
      "type": "function"
    },
    {
      "inputs": [
        {
          "internalType": "uint256",
          "name": "",
          "type": "uint256"
        }
      ],
      "name": "distributionTargets",
      "outputs": [
        {
          "internalType": "enum ProtocolShareReserve.Schema",
          "name": "schema",
          "type": "uint8"
        },
        {
          "internalType": "uint16",
          "name": "percentage",
          "type": "uint16"
        },
        {
          "internalType": "address",
          "name": "destination",
          "type": "address"
        }
      ],
      "stateMutability": "view",
      "type": "function"
    },
    {
      "inputs": [
        {
          "internalType": "address",
          "name": "destination",
          "type": "address"
        },
        {
          "internalType": "enum ProtocolShareReserve.Schema",
          "name": "schema",
          "type": "uint8"
        }
      ],
      "name": "getPercentageDistribution",
      "outputs": [
        {
          "internalType": "uint256",
          "name": "",
          "type": "uint256"
        }
      ],
      "stateMutability": "view",
      "type": "function"
    },
    {
      "inputs": [
        {
          "internalType": "address",
          "name": "comptroller",
          "type": "address"
        },
        {
          "internalType": "enum ProtocolShareReserve.Schema",
          "name": "schema",
          "type": "uint8"
        },
        {
          "internalType": "address",
          "name": "destination",
          "type": "address"
        },
        {
          "internalType": "address",
          "name": "asset",
          "type": "address"
        }
      ],
      "name": "getUnreleasedFunds",
      "outputs": [
        {
          "internalType": "uint256",
          "name": "",
          "type": "uint256"
        }
      ],
      "stateMutability": "view",
      "type": "function"
    },
    {
      "inputs": [
        {
          "internalType": "address",
          "name": "_accessControlManager",
          "type": "address"
        },
        {
          "internalType": "uint256",
          "name": "_loopsLimit",
          "type": "uint256"
        }
      ],
      "name": "initialize",
      "outputs": [],
      "stateMutability": "nonpayable",
      "type": "function"
    },
    {
      "inputs": [],
      "name": "maxLoopsLimit",
      "outputs": [
        {
          "internalType": "uint256",
          "name": "",
          "type": "uint256"
        }
      ],
      "stateMutability": "view",
      "type": "function"
    },
    {
      "inputs": [],
      "name": "owner",
      "outputs": [
        {
          "internalType": "address",
          "name": "",
          "type": "address"
        }
      ],
      "stateMutability": "view",
      "type": "function"
    },
    {
      "inputs": [],
      "name": "pendingOwner",
      "outputs": [
        {
          "internalType": "address",
          "name": "",
          "type": "address"
        }
      ],
      "stateMutability": "view",
      "type": "function"
    },
    {
      "inputs": [],
      "name": "poolRegistry",
      "outputs": [
        {
          "internalType": "address",
          "name": "",
          "type": "address"
        }
      ],
      "stateMutability": "view",
      "type": "function"
    },
    {
      "inputs": [
        {
          "internalType": "address",
          "name": "comptroller",
          "type": "address"
        },
        {
          "internalType": "address[]",
          "name": "assets",
          "type": "address[]"
        }
      ],
      "name": "releaseFunds",
      "outputs": [],
      "stateMutability": "nonpayable",
      "type": "function"
    },
    {
      "inputs": [
        {
          "internalType": "enum ProtocolShareReserve.Schema",
          "name": "schema",
          "type": "uint8"
        },
        {
          "internalType": "address",
          "name": "destination",
          "type": "address"
        }
      ],
      "name": "removeDistributionConfig",
      "outputs": [],
      "stateMutability": "nonpayable",
      "type": "function"
    },
    {
      "inputs": [],
      "name": "renounceOwnership",
      "outputs": [],
      "stateMutability": "nonpayable",
      "type": "function"
    },
    {
      "inputs": [
        {
          "internalType": "address",
          "name": "accessControlManager_",
          "type": "address"
        }
      ],
      "name": "setAccessControlManager",
      "outputs": [],
      "stateMutability": "nonpayable",
      "type": "function"
    },
    {
      "inputs": [
        {
          "internalType": "address",
          "name": "_poolRegistry",
          "type": "address"
        }
      ],
      "name": "setPoolRegistry",
      "outputs": [],
      "stateMutability": "nonpayable",
      "type": "function"
    },
    {
      "inputs": [
        {
          "internalType": "address",
          "name": "",
          "type": "address"
        }
      ],
      "name": "totalAssetReserve",
      "outputs": [
        {
          "internalType": "uint256",
          "name": "",
          "type": "uint256"
        }
      ],
      "stateMutability": "view",
      "type": "function"
    },
    {
      "inputs": [],
      "name": "totalDistributions",
      "outputs": [
        {
          "internalType": "uint256",
          "name": "",
          "type": "uint256"
        }
      ],
      "stateMutability": "view",
      "type": "function"
    },
    {
      "inputs": [
        {
          "internalType": "address",
          "name": "newOwner",
          "type": "address"
        }
      ],
      "name": "transferOwnership",
      "outputs": [],
      "stateMutability": "nonpayable",
      "type": "function"
    },
    {
      "inputs": [
        {
          "internalType": "address",
          "name": "comptroller",
          "type": "address"
        },
        {
          "internalType": "address",
          "name": "asset",
          "type": "address"
        },
        {
          "internalType": "enum IProtocolShareReserve.IncomeType",
          "name": "incomeType",
          "type": "uint8"
        }
      ],
      "name": "updateAssetsState",
      "outputs": [],
      "stateMutability": "nonpayable",
      "type": "function"
    },
    {
      "inputs": [],
      "name": "vBNB",
      "outputs": [
        {
          "internalType": "address",
          "name": "",
          "type": "address"
        }
      ],
      "stateMutability": "view",
      "type": "function"
    }
  ],
  "transactionHash": "0x8c2fe9eb246deefba4460212f9a3147b94a5167d2dfa16e99e78e7e267b8d18f",
  "args": [
    "0x0000000000000000000000000000000000000001",
    "0x0000000000000000000000000000000000000001",
    "0x0000000000000000000000000000000000000001"
  ],
  "numDeployments": 1,
  "solcInputHash": "9fb535a58937a08c38529913271f4d87",
  "bytecode": "0x60e060405234801561001057600080fd5b5060405161290238038061290283398101604081905261002f91610178565b61003883610073565b61004182610073565b61004a81610073565b6001600160a01b0380841660805282811660a052811660c05261006b61009d565b5050506101bb565b6001600160a01b03811661009a576040516342bcdf7f60e11b815260040160405180910390fd5b50565b600054610100900460ff16156101095760405162461bcd60e51b815260206004820152602760248201527f496e697469616c697a61626c653a20636f6e747261637420697320696e697469604482015266616c697a696e6760c81b606482015260840160405180910390fd5b60005460ff9081161461015a576000805460ff191660ff9081179091556040519081527f7f26b83ff96e1f2b6a682f133852f6798a09c465da95921460cefb38474024989060200160405180910390a15b565b80516001600160a01b038116811461017357600080fd5b919050565b60008060006060848603121561018d57600080fd5b6101968461015c565b92506101a46020850161015c565b91506101b26040850161015c565b90509250925092565b60805160a05160c0516127116101f160003960006101d9015260006102d9015260008181610399015261047301526127116000f3fe608060405234801561001057600080fd5b50600436106101735760003560e01c8063893ffe98116100de578063b4a0bdf311610097578063e30c397811610071578063e30c397814610370578063f2fde38b14610381578063fa7b81a014610394578063fc31116a146103bb57600080fd5b8063b4a0bdf314610343578063be26317e14610354578063cd6dc6871461035d57600080fd5b8063893ffe98146102b05780638da5cb5b146102c35780638dd95002146102d4578063966961f0146102fb578063aea211211461030e578063afcff50f1461032f57600080fd5b80634f429f36116101305780634f429f36146102355780635db6da12146102485780635f3d61331461027a578063715018a61461028d57806379ba5097146102955780637b77cd6a1461029d57600080fd5b80630e32cb86146101785780631036bbe21461018d578063163db71b146101ae57806316faecec146101c157806333e1567f146101d4578063392ee71214610213575b600080fd5b61018b610186366004612011565b6103ce565b005b61019661271081565b60405161ffff90911681526020015b60405180910390f35b610130545b6040519081526020016101a5565b61018b6101cf366004612042565b6103e2565b6101fb7f000000000000000000000000000000000000000000000000000000000000000081565b6040516001600160a01b0390911681526020016101a5565b61022661022136600461208d565b6106f4565b6040516101a5939291906120da565b61018b610243366004612108565b610734565b6101b3610256366004612042565b61012e60209081526000938452604080852082529284528284209052825290205481565b61018b610288366004612141565b6109da565b61018b610c83565b61018b610c97565b61018b6102ab366004612011565b610d13565b6101b36102be3660046121b6565b610d82565b6033546001600160a01b03166101fb565b6101fb7f000000000000000000000000000000000000000000000000000000000000000081565b6101b3610309366004612212565b610ea4565b6101b361031c366004612011565b61012f6020526000908152604090205481565b61012d546101fb906001600160a01b031681565b6097546001600160a01b03166101fb565b6101b360fb5481565b61018b61036b366004612240565b610f99565b6065546001600160a01b03166101fb565b61018b61038f366004612011565b6110bd565b6101fb7f000000000000000000000000000000000000000000000000000000000000000081565b61018b6103c936600461226c565b61112e565b6103d6611184565b6103df816111de565b50565b6103ea6112a4565b826001600160a01b0316627e3dd26040518163ffffffff1660e01b8152600401602060405180830381865afa158015610427573d6000803e3d6000fd5b505050506040513d601f19601f8201168201806040525081019061044b91906122f4565b6104685760405163e6c4247b60e01b815260040160405180910390fd5b610471826112fd565b7f00000000000000000000000000000000000000000000000000000000000000006001600160a01b0316836001600160a01b031614158015610531575061012d5460405163266e0a7f60e01b81526001600160a01b0385811660048301528481166024830152600092169063266e0a7f90604401602060405180830381865afa158015610502573d6000803e3d6000fd5b505050506040513d601f19601f820116820180604052508101906105269190612316565b6001600160a01b0316145b1561054f5760405163e6c4247b60e01b815260040160405180910390fd5b600061055a82611324565b6040516370a0823160e01b81523060048201529091506000906001600160a01b038516906370a0823190602401602060405180830381865afa1580156105a4573d6000803e3d6000fd5b505050506040513d601f19601f820116820180604052508101906105c89190612333565b6001600160a01b038516600090815261012f6020526040902054909150808211156106e2576001600160a01b03808716600090815261012e6020908152604080832093891683529290529081208284039182919086600181111561062e5761062e6120a6565b600181111561063f5761063f6120a6565b8152602001908152602001600020600082825461065c9190612362565b90915550506001600160a01b038616600090815261012f60205260408120805483929061068a908490612362565b92505081905550856001600160a01b0316876001600160a01b03167fa46b2431e663cf7b50c9d5129aff85d2394ecfd447b7ccba83986510a9d945ea8388886040516106d893929190612375565b60405180910390a3505b5050506106ef600160c955565b505050565b610130818154811061070557600080fd5b60009182526020909120015460ff81169150610100810461ffff1690630100000090046001600160a01b031683565b6107556040518060600160405280602881526020016126806028913961134f565b600080805b61013054811015610800576000610130828154811061077b5761077b6123a2565b6000918252602090912001805490915060ff16600181111561079f5761079f6120a6565b8660018111156107b1576107b16120a6565b1480156107d1575080546001600160a01b03868116630100000090920416145b80156107e557508054610100900461ffff16155b156107f7576001925081935050610800565b5060010161075a565b5080156109cc57610130828154811061081b5761081b6123a2565b9060005260206000200160000160039054906101000a90046001600160a01b03166001600160a01b03167f70e7a210881df49522a5bf05d477e00d59e52a41c96c1eedeaeb356b9e6c81cc610130848154811061087a5761087a6123a2565b9060005260206000200160000160019054906101000a900461ffff1661013085815481106108aa576108aa6123a2565b6000918252602090912001546040516108c7929160ff16906123b8565b60405180910390a261013080546108e0906001906123d9565b815481106108f0576108f06123a2565b90600052602060002001610130838154811061090e5761090e6123a2565b60009182526020909120825491018054909160ff1690829060ff19166001838181111561093d5761093d6120a6565b02179055508154815461ffff610100928390041690910262ffff001982168117835592546001600160a01b0363010000009182900416026301000000600160b81b0319909316610100600160b81b0319909116179190911790556101308054806109a9576109a96123ec565b600082815260209020810160001990810180546001600160b81b03191690550190555b6109d46113e9565b50505050565b6109e26112a4565b610a036040518060600160405280603481526020016126a86034913961134f565b60005b81811015610c5f576000838383818110610a2257610a226123a2565b905060600201803603810190610a389190612418565b9050610a4781604001516112fd565b61013054600090815b81811015610b595760006101308281548110610a6e57610a6e6123a2565b6000918252602090912001805490915060ff166001811115610a9257610a926120a6565b85516001811115610aa557610aa56120a6565b148015610aca575060408501518154630100000090046001600160a01b039081169116145b15610b505760408581015182546020880151885193516001600160a01b03909316937fa682db621f4ae1c92cd6c492151d32fe657fc6db6e87bd65eb8bda05311f6ef293610b2393610100900461ffff1692919061249f565b60405180910390a26020850151815461ffff9091166101000262ffff001990911617905560019250610b59565b50600101610a50565b5081610c515761013080546001818101835560009290925284517f2f605e086faac1d93117bbfbc18835d434e9405fadc1ca66faf4b864746daf3490910180548693919291839160ff1916908381811115610bb657610bb66120a6565b02179055506020828101518254604094850151610100600160b81b031990911661010061ffff909316929092026301000000600160b81b0319169190911763010000006001600160a01b03928316021790925585830151908601518651935191909216927f8c96910d818618d8b1de4e1b5672a192443e87aa553f0ebe4c47f9d8c928b28292610c48929091906123b8565b60405180910390a25b836001019350505050610a06565b50610c686113e9565b61013054610c75906115a8565b610c7f600160c955565b5050565b610c8b611184565b610c9560006115d9565b565b60655433906001600160a01b03168114610d0a5760405162461bcd60e51b815260206004820152602960248201527f4f776e61626c6532537465703a2063616c6c6572206973206e6f7420746865206044820152683732bb9037bbb732b960b91b60648201526084015b60405180910390fd5b6103df816115d9565b610d1b611184565b610d24816112fd565b61012d546040516001600160a01b038084169216907fa87b964d321035d2165e484ff4b722dd6eae30606c0b98887d2ed1a34e594bfe90600090a361012d80546001600160a01b0319166001600160a01b0392909216919091179055565b61013054600090815b81811015610e995760006101308281548110610da957610da96123a2565b906000526020600020019050866001811115610dc757610dc76120a6565b815460ff166001811115610ddd57610ddd6120a6565b148015610dfd575080546001600160a01b03878116630100000090920416145b15610e90576001600160a01b03808916600090815261012e60209081526040808320938916835292905290812081896001811115610e3d57610e3d6120a6565b6001811115610e4e57610e4e6120a6565b8152602081019190915260400160002054825490915061271090610e7b90610100900461ffff16836124bb565b610e8591906124d2565b945050505050610e9c565b50600101610d8b565b50505b949350505050565b61013054600090815b81811015610f905760006101308281548110610ecb57610ecb6123a2565b60009182526020909120604080516060810190915291018054829060ff166001811115610efa57610efa6120a6565b6001811115610f0b57610f0b6120a6565b81529054610100810461ffff166020830152630100000090046001600160a01b03908116604092830152908201519192508781169116148015610f705750846001811115610f5b57610f5b6120a6565b81516001811115610f6e57610f6e6120a6565b145b15610f87576020015161ffff169250610f93915050565b50600101610ead565b50505b92915050565b600054610100900460ff1615808015610fb95750600054600160ff909116105b80610fd35750303b158015610fd3575060005460ff166001145b6110365760405162461bcd60e51b815260206004820152602e60248201527f496e697469616c697a61626c653a20636f6e747261637420697320616c72656160448201526d191e481a5b9a5d1a585b1a5e995960921b6064820152608401610d01565b6000805460ff191660011790558015611059576000805461ff0019166101001790555b611062836115f2565b61106a61162a565b61107382611659565b80156106ef576000805461ff0019169055604051600181527f7f26b83ff96e1f2b6a682f133852f6798a09c465da95921460cefb38474024989060200160405180910390a1505050565b6110c5611184565b606580546001600160a01b0383166001600160a01b031990911681179091556110f66033546001600160a01b031690565b6001600160a01b03167f38d16b8cac22d99fc7c124b9cd0de2d3fa1faef420bfe791d8c362d765e2270060405160405180910390a350565b6111366112a4565b60005b818110156111795761117184848484818110611157576111576123a2565b905060200201602081019061116c9190612011565b6116f3565b600101611139565b506106ef600160c955565b6033546001600160a01b03163314610c955760405162461bcd60e51b815260206004820181905260248201527f4f776e61626c653a2063616c6c6572206973206e6f7420746865206f776e65726044820152606401610d01565b6001600160a01b0381166112425760405162461bcd60e51b815260206004820152602560248201527f696e76616c696420616365737320636f6e74726f6c206d616e61676572206164604482015264647265737360d81b6064820152608401610d01565b609780546001600160a01b038381166001600160a01b031983168117909355604080519190921680825260208201939093527f66fd58e82f7b31a2a5c30e0888f3093efe4e111b00cd2b0c31fe014601293aa091015b60405180910390a15050565b600260c954036112f65760405162461bcd60e51b815260206004820152601f60248201527f5265656e7472616e637947756172643a207265656e7472616e742063616c6c006044820152606401610d01565b600260c955565b6001600160a01b0381166103df576040516342bcdf7f60e11b815260040160405180910390fd5b6001600082600181111561133a5761133a6120a6565b03611343575060005b919050565b600160c955565b6097546040516318c5e8ab60e01b81526000916001600160a01b0316906318c5e8ab906113829033908690600401612544565b602060405180830381865afa15801561139f573d6000803e3d6000fd5b505050506040513d601f19601f820116820180604052508101906113c391906122f4565b905080610c7f57333083604051634a3fa29360e01b8152600401610d0193929190612568565b60006113f6600180612362565b905060008167ffffffffffffffff81111561141357611413612402565b60405190808252806020026020018201604052801561143c578160200160208202803683370190505b506101305490915060005b818110156115255760006101308281548110611465576114656123a2565b60009182526020909120604080516060810190915291018054829060ff166001811115611494576114946120a6565b60018111156114a5576114a56120a6565b81529054610100810461ffff1660208084019190915263010000009091046001600160a01b0316604090920191909152810151815191925090859060018111156114f1576114f16120a6565b81518110611501576115016123a2565b60200260200101818151611515919061259d565b61ffff1690525050600101611447565b5060005b838110156109d45761271061ffff1683828151811061154a5761154a6123a2565b602002602001015161ffff16141580156115825750828181518110611571576115716123a2565b602002602001015161ffff16600014155b156115a057604051630b8ad7f160e01b815260040160405180910390fd5b600101611529565b60fb548111156103df5760fb5460405163792bfb1b60e11b8152600481019190915260248101829052604401610d01565b606580546001600160a01b03191690556103df81611cb3565b600054610100900460ff166116195760405162461bcd60e51b8152600401610d01906125bf565b611621611d05565b6103df81611d34565b600054610100900460ff166116515760405162461bcd60e51b8152600401610d01906125bf565b610c95611d5b565b60fb5481116116b55760405162461bcd60e51b815260206004820152602260248201527f436f6d7074726f6c6c65723a20496e76616c6964206d61784c6f6f70734c696d6044820152611a5d60f21b6064820152608401610d01565b60fb80549082905560408051828152602081018490527fc2d09fef144f7c8a86f71ea459f8fc17f675768eb1ae369cbd77fb31d467aafa9101611298565b6000611700600180612362565b905060008167ffffffffffffffff81111561171d5761171d612402565b604051908082528060200260200182016040528015611746578160200160208202803683370190505b5090506000805b8381101561180e576001600160a01b03808716600090815261012e60209081526040808320938916835292905290812090826001811115611790576117906120a6565b60018111156117a1576117a16120a6565b60018111156117b2576117b26120a6565b8152602001908152602001600020548382815181106117d3576117d36123a2565b6020026020010181815250508281815181106117f1576117f16123a2565b6020026020010151826118049190612362565b915060010161174d565b508060000361181e575050505050565b60008367ffffffffffffffff81111561183957611839612402565b604051908082528060200260200182016040528015611862578160200160208202803683370190505b50905060005b61013054811015611a7e5760006101308281548110611889576118896123a2565b60009182526020909120604080516060810190915291018054829060ff1660018111156118b8576118b86120a6565b60018111156118c9576118c96120a6565b81529054610100810461ffff90811660208085019190915263010000009092046001600160a01b0316604090930192909252820151825192935060009261271092919091169088906001811115611922576119226120a6565b81518110611932576119326123a2565b602002602001015161194491906124bb565b61194e91906124d2565b9050808483600001516001811115611968576119686120a6565b81518110611978576119786123a2565b6020026020010181815161198c9190612362565b9052508015611a745760408201516119af906001600160a01b038a169083611d82565b604080830151905163aac59a7560e01b81526001600160a01b038b811660048301528a811660248301529091169063aac59a7590604401600060405180830381600087803b158015611a0057600080fd5b505af1158015611a14573d6000803e3d6000fd5b50505050876001600160a01b031682604001516001600160a01b03167f09f71e7b22d78540ee9a42f09917a9d62f46735cb0dfa70d6bab27866d9cb5008460000151856020015185604051611a6b9392919061260a565b60405180910390a35b5050600101611868565b5060008467ffffffffffffffff811115611a9a57611a9a612402565b604051908082528060200260200182016040528015611ac3578160200160208202803683370190505b50905060005b85811015611ca957828181518110611ae357611ae36123a2565b6020026020010151858281518110611afd57611afd6123a2565b6020026020010151611b0f91906123d9565b828281518110611b2157611b216123a2565b602002602001018181525050818181518110611b3f57611b3f6123a2565b6020908102919091018101516001600160a01b03808b16600090815261012e84526040808220928c1682529190935282209091836001811115611b8457611b846120a6565b6001811115611b9557611b956120a6565b6001811115611ba657611ba66120a6565b815260200190815260200160002081905550828181518110611bca57611bca6123a2565b602002602001015161012f6000896001600160a01b03166001600160a01b0316815260200190815260200160002054611c0391906123d9565b6001600160a01b03808916600081815261012f602052604090209290925589167f7d881f3d6246a6a2b97b121b8ba093c17497912c68e8b2bca6108528e91df3ca836001811115611c5657611c566120a6565b888581518110611c6857611c686123a2565b6020026020010151868681518110611c8257611c826123a2565b6020026020010151604051611c999392919061262f565b60405180910390a3600101611ac9565b5050505050505050565b603380546001600160a01b038381166001600160a01b0319831681179093556040519116919082907f8be0079c531659141344cd1fd0a4f28419497f9722a3daafe3b4186f6b6457e090600090a35050565b600054610100900460ff16611d2c5760405162461bcd60e51b8152600401610d01906125bf565b610c95611dd4565b600054610100900460ff166103d65760405162461bcd60e51b8152600401610d01906125bf565b600054610100900460ff166113485760405162461bcd60e51b8152600401610d01906125bf565b604080516001600160a01b038416602482015260448082018490528251808303909101815260649091019091526020810180516001600160e01b031663a9059cbb60e01b1790526106ef908490611e04565b600054610100900460ff16611dfb5760405162461bcd60e51b8152600401610d01906125bf565b610c95336115d9565b6000611e59826040518060400160405280602081526020017f5361666545524332303a206c6f772d6c6576656c2063616c6c206661696c6564815250856001600160a01b0316611ed99092919063ffffffff16565b9050805160001480611e7a575080806020019051810190611e7a91906122f4565b6106ef5760405162461bcd60e51b815260206004820152602a60248201527f5361666545524332303a204552433230206f7065726174696f6e20646964206e6044820152691bdd081cdd58d8d9595960b21b6064820152608401610d01565b6060610e9c848460008585600080866001600160a01b03168587604051611f009190612650565b60006040518083038185875af1925050503d8060008114611f3d576040519150601f19603f3d011682016040523d82523d6000602084013e611f42565b606091505b5091509150611f5387838387611f5e565b979650505050505050565b60608315611fcd578251600003611fc6576001600160a01b0385163b611fc65760405162461bcd60e51b815260206004820152601d60248201527f416464726573733a2063616c6c20746f206e6f6e2d636f6e74726163740000006044820152606401610d01565b5081610e9c565b610e9c8383815115611fe25781518083602001fd5b8060405162461bcd60e51b8152600401610d01919061266c565b6001600160a01b03811681146103df57600080fd5b60006020828403121561202357600080fd5b813561202e81611ffc565b9392505050565b600281106103df57600080fd5b60008060006060848603121561205757600080fd5b833561206281611ffc565b9250602084013561207281611ffc565b9150604084013561208281612035565b809150509250925092565b60006020828403121561209f57600080fd5b5035919050565b634e487b7160e01b600052602160045260246000fd5b600281106103df57634e487b7160e01b600052602160045260246000fd5b606081016120e7856120bc565b93815261ffff9290921660208301526001600160a01b031660409091015290565b6000806040838503121561211b57600080fd5b823561212681612035565b9150602083013561213681611ffc565b809150509250929050565b6000806020838503121561215457600080fd5b823567ffffffffffffffff8082111561216c57600080fd5b818501915085601f83011261218057600080fd5b81358181111561218f57600080fd5b8660206060830285010111156121a457600080fd5b60209290920196919550909350505050565b600080600080608085870312156121cc57600080fd5b84356121d781611ffc565b935060208501356121e781612035565b925060408501356121f781611ffc565b9150606085013561220781611ffc565b939692955090935050565b6000806040838503121561222557600080fd5b823561223081611ffc565b9150602083013561213681612035565b6000806040838503121561225357600080fd5b823561225e81611ffc565b946020939093013593505050565b60008060006040848603121561228157600080fd5b833561228c81611ffc565b9250602084013567ffffffffffffffff808211156122a957600080fd5b818601915086601f8301126122bd57600080fd5b8135818111156122cc57600080fd5b8760208260051b85010111156122e157600080fd5b6020830194508093505050509250925092565b60006020828403121561230657600080fd5b8151801515811461202e57600080fd5b60006020828403121561232857600080fd5b815161202e81611ffc565b60006020828403121561234557600080fd5b5051919050565b634e487b7160e01b600052601160045260246000fd5b80820180821115610f9357610f9361234c565b83815260608101612385846120bc565b836020830152612394836120bc565b826040830152949350505050565b634e487b7160e01b600052603260045260246000fd5b61ffff83168152604081016123cc836120bc565b8260208301529392505050565b81810381811115610f9357610f9361234c565b634e487b7160e01b600052603160045260246000fd5b634e487b7160e01b600052604160045260246000fd5b60006060828403121561242a57600080fd5b6040516060810181811067ffffffffffffffff8211171561245b57634e487b7160e01b600052604160045260246000fd5b604052823561246981612035565b8152602083013561ffff8116811461248057600080fd5b6020820152604083013561249381611ffc565b60408201529392505050565b61ffff84811682528316602082015260608101612394836120bc565b8082028115828204841417610f9357610f9361234c565b6000826124ef57634e487b7160e01b600052601260045260246000fd5b500490565b60005b8381101561250f5781810151838201526020016124f7565b50506000910152565b600081518084526125308160208601602086016124f4565b601f01601f19169290920160200192915050565b6001600160a01b0383168152604060208201819052600090610e9c90830184612518565b6001600160a01b0384811682528316602082015260606040820181905260009061259490830184612518565b95945050505050565b61ffff8181168382160190808211156125b8576125b861234c565b5092915050565b6020808252602b908201527f496e697469616c697a61626c653a20636f6e7472616374206973206e6f74206960408201526a6e697469616c697a696e6760a81b606082015260800190565b60608101612617856120bc565b93815261ffff92909216602083015260409091015290565b6060810161263c856120bc565b938152602081019290925260409091015290565b600082516126628184602087016124f4565b9190910192915050565b60208152600061202e602083018461251856fe72656d6f7665446973747269627574696f6e436f6e66696728536368656d612c61646472657373296164644f72557064617465446973747269627574696f6e436f6e6669677328446973747269627574696f6e436f6e6669675b5d29a26469706673582212204c6d459a0bf1da26566345064da3efec55897cd08c814b5d89cd88590692132864736f6c63430008190033",
  "devdoc": {
    "events": {
      "Initialized(uint8)": {
        "details": "Triggered when the contract has been initialized or reinitialized."
      }
    },
    "kind": "dev",
    "methods": {
      "acceptOwnership()": {
        "details": "The new owner accepts the ownership transfer."
      },
      "addOrUpdateDistributionConfigs((uint8,uint16,address)[])": {
        "details": "Add or update destination targets based on destination address",
        "params": {
          "configs": "configurations of the destinations."
        }
      },
      "constructor": {
        "custom:oz-upgrades-unsafe-allow": "constructor"
      },
      "getPercentageDistribution(address,uint8)": {
        "details": "Used to find out the percentage distribution for a particular destination based on schema",
        "params": {
          "destination": "the destination address of the distribution target",
          "schema": "the schema of the distribution target"
        },
        "returns": {
          "_0": "percentage percentage distribution"
        }
      },
      "getUnreleasedFunds(address,uint8,address,address)": {
        "details": "Used to find out the amount of funds that's going to be released when release funds is called.",
        "params": {
          "asset": "the asset address which will be released",
          "comptroller": "the comptroller address of the pool",
          "destination": "the destination address of the distribution target",
          "schema": "the schema of the distribution target"
        }
      },
      "initialize(address,uint256)": {
        "details": "Initializes the deployer to owner.",
        "params": {
          "_accessControlManager": "The address of ACM contract",
          "_loopsLimit": "Limit for the loops in the contract to avoid DOS"
        }
      },
      "owner()": {
        "details": "Returns the address of the current owner."
      },
      "pendingOwner()": {
        "details": "Returns the address of the pending owner."
      },
      "releaseFunds(address,address[])": {
        "details": "Release funds",
        "params": {
          "assets": "assets to be released to distribution targets",
          "comptroller": "the comptroller address of the pool"
        }
      },
      "removeDistributionConfig(uint8,address)": {
        "details": "Remove destionation target if percentage is 0",
        "params": {
          "destination": "destination address of the configuration",
          "schema": "schema of the configuration"
        }
      },
      "renounceOwnership()": {
        "details": "Leaves the contract without owner. It will not be possible to call `onlyOwner` functions. Can only be called by the current owner. NOTE: Renouncing ownership will leave the contract without an owner, thereby disabling any functionality that is only available to the owner."
      },
      "setAccessControlManager(address)": {
        "custom:access": "Only Governance",
        "custom:event": "Emits NewAccessControlManager event",
        "details": "Admin function to set address of AccessControlManager",
        "params": {
          "accessControlManager_": "The new address of the AccessControlManager"
        }
      },
      "setPoolRegistry(address)": {
        "custom:error": "ZeroAddressNotAllowed is thrown when pool registry address is zero",
        "details": "Pool registry setter.",
        "params": {
          "_poolRegistry": "Address of the pool registry"
        }
      },
      "totalDistributions()": {
        "details": "Returns the total number of distribution targets"
      },
      "transferOwnership(address)": {
        "details": "Starts the ownership transfer of the contract to a new account. Replaces the pending transfer if there is one. Can only be called by the current owner."
      },
      "updateAssetsState(address,address,uint8)": {
        "details": "Update the reserve of the asset for the specific pool after transferring to the protocol share reserve.",
        "params": {
          "asset": "Asset address.",
          "comptroller": "Comptroller address (pool)",
          "incomeType": "type of income"
        }
      }
    },
    "stateVariables": {
      "CORE_POOL_COMPTROLLER": {
        "custom:oz-upgrades-unsafe-allow": "state-variable-immutable"
      },
      "WBNB": {
        "custom:oz-upgrades-unsafe-allow": "state-variable-immutable"
      },
      "vBNB": {
        "custom:oz-upgrades-unsafe-allow": "state-variable-immutable"
      }
    },
    "version": 1
  },
  "userdoc": {
    "errors": {
      "MaxLoopsLimitExceeded(uint256,uint256)": [
        {
          "notice": "Thrown an error on maxLoopsLimit exceeds for any loop"
        }
      ],
      "Unauthorized(address,address,string)": [
        {
          "notice": "Thrown when the action is prohibited by AccessControlManager"
        }
      ],
      "ZeroAddressNotAllowed()": [
        {
          "notice": "Thrown if the supplied address is a zero address where it is not allowed"
        }
      ]
    },
    "events": {
      "AssetReleased(address,address,uint8,uint256,uint256)": {
        "notice": "Event emitted when an asset is released to a target"
      },
      "AssetsReservesUpdated(address,address,uint256,uint8,uint8)": {
        "notice": "Event emitted after updating of the assets reserves."
      },
      "DistributionConfigAdded(address,uint16,uint8)": {
        "notice": "Event emitted when distribution configuration is added"
      },
      "DistributionConfigRemoved(address,uint16,uint8)": {
        "notice": "Event emitted when distribution configuration is removed"
      },
      "DistributionConfigUpdated(address,uint16,uint16,uint8)": {
        "notice": "Event emitted when distribution configuration is updated"
      },
      "MaxLoopsLimitUpdated(uint256,uint256)": {
        "notice": "Emitted when max loops limit is set"
      },
      "NewAccessControlManager(address,address)": {
        "notice": "Emitted when access control manager contract address is changed"
      },
      "PoolRegistryUpdated(address,address)": {
        "notice": "Emitted when pool registry address is updated"
      },
      "ReservesUpdated(address,address,uint8,uint256,uint256)": {
        "notice": "Event emitted when asset reserves state is updated"
      }
    },
    "kind": "user",
    "methods": {
      "CORE_POOL_COMPTROLLER()": {
        "notice": "address of core pool comptroller contract"
      },
      "WBNB()": {
        "notice": "address of WBNB contract"
      },
      "accessControlManager()": {
        "notice": "Returns the address of the access control manager contract"
      },
      "assetsReserves(address,address,uint8)": {
        "notice": "comptroller => asset => schema => balance"
      },
      "distributionTargets(uint256)": {
        "notice": "configuration for different income distribution targets"
      },
      "poolRegistry()": {
        "notice": "address of pool registry contract"
      },
      "setAccessControlManager(address)": {
        "notice": "Sets the address of AccessControlManager"
      },
      "totalAssetReserve(address)": {
        "notice": "asset => balance"
      },
      "vBNB()": {
        "notice": "address of vBNB contract"
      }
    },
    "version": 1
  },
  "storageLayout": {
    "storage": [
      {
        "astId": 292,
        "contract": "@venusprotocol/protocol-reserve/contracts/ProtocolReserve/ProtocolShareReserve.sol:ProtocolShareReserve",
        "label": "_initialized",
        "offset": 0,
        "slot": "0",
        "type": "t_uint8"
      },
      {
        "astId": 295,
        "contract": "@venusprotocol/protocol-reserve/contracts/ProtocolReserve/ProtocolShareReserve.sol:ProtocolShareReserve",
        "label": "_initializing",
        "offset": 1,
        "slot": "0",
        "type": "t_bool"
      },
      {
        "astId": 1562,
        "contract": "@venusprotocol/protocol-reserve/contracts/ProtocolReserve/ProtocolShareReserve.sol:ProtocolShareReserve",
        "label": "__gap",
        "offset": 0,
        "slot": "1",
        "type": "t_array(t_uint256)50_storage"
      },
      {
        "astId": 164,
        "contract": "@venusprotocol/protocol-reserve/contracts/ProtocolReserve/ProtocolShareReserve.sol:ProtocolShareReserve",
        "label": "_owner",
        "offset": 0,
        "slot": "51",
        "type": "t_address"
      },
      {
        "astId": 284,
        "contract": "@venusprotocol/protocol-reserve/contracts/ProtocolReserve/ProtocolShareReserve.sol:ProtocolShareReserve",
        "label": "__gap",
        "offset": 0,
        "slot": "52",
        "type": "t_array(t_uint256)49_storage"
      },
      {
        "astId": 57,
        "contract": "@venusprotocol/protocol-reserve/contracts/ProtocolReserve/ProtocolShareReserve.sol:ProtocolShareReserve",
        "label": "_pendingOwner",
        "offset": 0,
        "slot": "101",
        "type": "t_address"
      },
      {
        "astId": 151,
        "contract": "@venusprotocol/protocol-reserve/contracts/ProtocolReserve/ProtocolShareReserve.sol:ProtocolShareReserve",
        "label": "__gap",
        "offset": 0,
        "slot": "102",
        "type": "t_array(t_uint256)49_storage"
      },
      {
        "astId": 7293,
        "contract": "@venusprotocol/protocol-reserve/contracts/ProtocolReserve/ProtocolShareReserve.sol:ProtocolShareReserve",
        "label": "_accessControlManager",
        "offset": 0,
        "slot": "151",
        "type": "t_contract(IAccessControlManagerV8)7478"
      },
      {
        "astId": 7298,
        "contract": "@venusprotocol/protocol-reserve/contracts/ProtocolReserve/ProtocolShareReserve.sol:ProtocolShareReserve",
        "label": "__gap",
        "offset": 0,
        "slot": "152",
        "type": "t_array(t_uint256)49_storage"
      },
      {
        "astId": 597,
        "contract": "@venusprotocol/protocol-reserve/contracts/ProtocolReserve/ProtocolShareReserve.sol:ProtocolShareReserve",
        "label": "_status",
        "offset": 0,
        "slot": "201",
        "type": "t_uint256"
      },
      {
        "astId": 666,
        "contract": "@venusprotocol/protocol-reserve/contracts/ProtocolReserve/ProtocolShareReserve.sol:ProtocolShareReserve",
        "label": "__gap",
        "offset": 0,
        "slot": "202",
        "type": "t_array(t_uint256)49_storage"
      },
      {
        "astId": 9661,
        "contract": "@venusprotocol/protocol-reserve/contracts/ProtocolReserve/ProtocolShareReserve.sol:ProtocolShareReserve",
        "label": "maxLoopsLimit",
        "offset": 0,
        "slot": "251",
        "type": "t_uint256"
      },
      {
        "astId": 9666,
        "contract": "@venusprotocol/protocol-reserve/contracts/ProtocolReserve/ProtocolShareReserve.sol:ProtocolShareReserve",
        "label": "__gap",
        "offset": 0,
        "slot": "252",
        "type": "t_array(t_uint256)49_storage"
      },
      {
        "astId": 8570,
        "contract": "@venusprotocol/protocol-reserve/contracts/ProtocolReserve/ProtocolShareReserve.sol:ProtocolShareReserve",
        "label": "poolRegistry",
        "offset": 0,
        "slot": "301",
        "type": "t_address"
      },
      {
        "astId": 8583,
        "contract": "@venusprotocol/protocol-reserve/contracts/ProtocolReserve/ProtocolShareReserve.sol:ProtocolShareReserve",
        "label": "assetsReserves",
        "offset": 0,
        "slot": "302",
        "type": "t_mapping(t_address,t_mapping(t_address,t_mapping(t_enum(Schema)8549,t_uint256)))"
      },
      {
        "astId": 8588,
        "contract": "@venusprotocol/protocol-reserve/contracts/ProtocolReserve/ProtocolShareReserve.sol:ProtocolShareReserve",
        "label": "totalAssetReserve",
        "offset": 0,
        "slot": "303",
        "type": "t_mapping(t_address,t_uint256)"
      },
      {
        "astId": 8593,
        "contract": "@venusprotocol/protocol-reserve/contracts/ProtocolReserve/ProtocolShareReserve.sol:ProtocolShareReserve",
        "label": "distributionTargets",
        "offset": 0,
        "slot": "304",
        "type": "t_array(t_struct(DistributionConfig)8558_storage)dyn_storage"
      }
    ],
    "types": {
      "t_address": {
        "encoding": "inplace",
        "label": "address",
        "numberOfBytes": "20"
      },
      "t_array(t_struct(DistributionConfig)8558_storage)dyn_storage": {
        "base": "t_struct(DistributionConfig)8558_storage",
        "encoding": "dynamic_array",
        "label": "struct ProtocolShareReserve.DistributionConfig[]",
        "numberOfBytes": "32"
      },
      "t_array(t_uint256)49_storage": {
        "base": "t_uint256",
        "encoding": "inplace",
        "label": "uint256[49]",
        "numberOfBytes": "1568"
      },
      "t_array(t_uint256)50_storage": {
        "base": "t_uint256",
        "encoding": "inplace",
        "label": "uint256[50]",
        "numberOfBytes": "1600"
      },
      "t_bool": {
        "encoding": "inplace",
        "label": "bool",
        "numberOfBytes": "1"
      },
      "t_contract(IAccessControlManagerV8)7478": {
        "encoding": "inplace",
        "label": "contract IAccessControlManagerV8",
        "numberOfBytes": "20"
      },
      "t_enum(Schema)8549": {
        "encoding": "inplace",
        "label": "enum ProtocolShareReserve.Schema",
        "numberOfBytes": "1"
      },
      "t_mapping(t_address,t_mapping(t_address,t_mapping(t_enum(Schema)8549,t_uint256)))": {
        "encoding": "mapping",
        "key": "t_address",
        "label": "mapping(address => mapping(address => mapping(enum ProtocolShareReserve.Schema => uint256)))",
        "numberOfBytes": "32",
        "value": "t_mapping(t_address,t_mapping(t_enum(Schema)8549,t_uint256))"
      },
      "t_mapping(t_address,t_mapping(t_enum(Schema)8549,t_uint256))": {
        "encoding": "mapping",
        "key": "t_address",
        "label": "mapping(address => mapping(enum ProtocolShareReserve.Schema => uint256))",
        "numberOfBytes": "32",
        "value": "t_mapping(t_enum(Schema)8549,t_uint256)"
      },
      "t_mapping(t_address,t_uint256)": {
        "encoding": "mapping",
        "key": "t_address",
        "label": "mapping(address => uint256)",
        "numberOfBytes": "32",
        "value": "t_uint256"
      },
      "t_mapping(t_enum(Schema)8549,t_uint256)": {
        "encoding": "mapping",
        "key": "t_enum(Schema)8549",
        "label": "mapping(enum ProtocolShareReserve.Schema => uint256)",
        "numberOfBytes": "32",
        "value": "t_uint256"
      },
      "t_struct(DistributionConfig)8558_storage": {
        "encoding": "inplace",
        "label": "struct ProtocolShareReserve.DistributionConfig",
        "members": [
          {
            "astId": 8552,
            "contract": "@venusprotocol/protocol-reserve/contracts/ProtocolReserve/ProtocolShareReserve.sol:ProtocolShareReserve",
            "label": "schema",
            "offset": 0,
            "slot": "0",
            "type": "t_enum(Schema)8549"
          },
          {
            "astId": 8555,
            "contract": "@venusprotocol/protocol-reserve/contracts/ProtocolReserve/ProtocolShareReserve.sol:ProtocolShareReserve",
            "label": "percentage",
            "offset": 1,
            "slot": "0",
            "type": "t_uint16"
          },
          {
            "astId": 8557,
            "contract": "@venusprotocol/protocol-reserve/contracts/ProtocolReserve/ProtocolShareReserve.sol:ProtocolShareReserve",
            "label": "destination",
            "offset": 3,
            "slot": "0",
            "type": "t_address"
          }
        ],
        "numberOfBytes": "32"
      },
      "t_uint16": {
        "encoding": "inplace",
        "label": "uint16",
        "numberOfBytes": "2"
      },
      "t_uint256": {
        "encoding": "inplace",
        "label": "uint256",
        "numberOfBytes": "32"
      },
      "t_uint8": {
        "encoding": "inplace",
        "label": "uint8",
        "numberOfBytes": "1"
      }
    }
  }
}